{
  "_format": "hh-sol-artifact-1",
  "contractName": "NFTShirt",
  "sourceName": "contracts/NFTShirt.sol",
  "abi": [
    {
      "inputs": [
        {
          "internalType": "string",
          "name": "name",
          "type": "string"
        },
        {
          "internalType": "string",
          "name": "symbol",
          "type": "string"
        }
      ],
      "stateMutability": "payable",
      "type": "constructor"
    },
    {
      "anonymous": false,
      "inputs": [
        {
          "indexed": true,
          "internalType": "address",
          "name": "owner",
          "type": "address"
        },
        {
          "indexed": true,
          "internalType": "address",
          "name": "approved",
          "type": "address"
        },
        {
          "indexed": true,
          "internalType": "uint256",
          "name": "tokenId",
          "type": "uint256"
        }
      ],
      "name": "Approval",
      "type": "event"
    },
    {
      "anonymous": false,
      "inputs": [
        {
          "indexed": true,
          "internalType": "address",
          "name": "owner",
          "type": "address"
        },
        {
          "indexed": true,
          "internalType": "address",
          "name": "operator",
          "type": "address"
        },
        {
          "indexed": false,
          "internalType": "bool",
          "name": "approved",
          "type": "bool"
        }
      ],
      "name": "ApprovalForAll",
      "type": "event"
    },
    {
      "anonymous": false,
      "inputs": [
        {
          "indexed": true,
          "internalType": "address",
          "name": "from",
          "type": "address"
        },
        {
          "indexed": true,
          "internalType": "address",
          "name": "to",
          "type": "address"
        },
        {
          "indexed": true,
          "internalType": "uint256",
          "name": "tokenId",
          "type": "uint256"
        }
      ],
      "name": "Transfer",
      "type": "event"
    },
    {
      "inputs": [
        {
          "internalType": "address",
          "name": "to",
          "type": "address"
        },
        {
          "internalType": "uint256",
          "name": "tokenId",
          "type": "uint256"
        }
      ],
      "name": "approve",
      "outputs": [],
      "stateMutability": "nonpayable",
      "type": "function"
    },
    {
      "inputs": [
        {
          "internalType": "address",
          "name": "owner",
          "type": "address"
        }
      ],
      "name": "balanceOf",
      "outputs": [
        {
          "internalType": "uint256",
          "name": "",
          "type": "uint256"
        }
      ],
      "stateMutability": "view",
      "type": "function"
    },
    {
      "inputs": [
        {
          "internalType": "address",
          "name": "newOwner",
          "type": "address"
        }
      ],
      "name": "changeOwner",
      "outputs": [],
      "stateMutability": "nonpayable",
      "type": "function"
    },
    {
      "inputs": [],
      "name": "checkDonationBalance",
      "outputs": [
        {
          "internalType": "uint256",
          "name": "",
          "type": "uint256"
        }
      ],
      "stateMutability": "view",
      "type": "function"
    },
    {
      "inputs": [
        {
          "internalType": "uint256",
          "name": "tokenId",
          "type": "uint256"
        }
      ],
      "name": "getApproved",
      "outputs": [
        {
          "internalType": "address",
          "name": "",
          "type": "address"
        }
      ],
      "stateMutability": "view",
      "type": "function"
    },
    {
      "inputs": [
        {
          "internalType": "address",
          "name": "owner",
          "type": "address"
        },
        {
          "internalType": "address",
          "name": "operator",
          "type": "address"
        }
      ],
      "name": "isApprovedForAll",
      "outputs": [
        {
          "internalType": "bool",
          "name": "",
          "type": "bool"
        }
      ],
      "stateMutability": "view",
      "type": "function"
    },
    {
      "inputs": [
        {
          "internalType": "string",
          "name": "_tokenURI",
          "type": "string"
        }
      ],
      "name": "mint",
      "outputs": [],
      "stateMutability": "payable",
      "type": "function"
    },
    {
      "inputs": [],
      "name": "name",
      "outputs": [
        {
          "internalType": "string",
          "name": "",
          "type": "string"
        }
      ],
      "stateMutability": "view",
      "type": "function"
    },
    {
      "inputs": [
        {
          "internalType": "uint256",
          "name": "tokenId",
          "type": "uint256"
        }
      ],
      "name": "ownerOf",
      "outputs": [
        {
          "internalType": "address",
          "name": "",
          "type": "address"
        }
      ],
      "stateMutability": "view",
      "type": "function"
    },
    {
      "inputs": [
        {
          "internalType": "address",
          "name": "from",
          "type": "address"
        },
        {
          "internalType": "address",
          "name": "to",
          "type": "address"
        },
        {
          "internalType": "uint256",
          "name": "tokenId",
          "type": "uint256"
        }
      ],
      "name": "safeTransferFrom",
      "outputs": [],
      "stateMutability": "nonpayable",
      "type": "function"
    },
    {
      "inputs": [
        {
          "internalType": "address",
          "name": "from",
          "type": "address"
        },
        {
          "internalType": "address",
          "name": "to",
          "type": "address"
        },
        {
          "internalType": "uint256",
          "name": "tokenId",
          "type": "uint256"
        },
        {
          "internalType": "bytes",
          "name": "data",
          "type": "bytes"
        }
      ],
      "name": "safeTransferFrom",
      "outputs": [],
      "stateMutability": "nonpayable",
      "type": "function"
    },
    {
      "inputs": [
        {
          "internalType": "address",
          "name": "operator",
          "type": "address"
        },
        {
          "internalType": "bool",
          "name": "approved",
          "type": "bool"
        }
      ],
      "name": "setApprovalForAll",
      "outputs": [],
      "stateMutability": "nonpayable",
      "type": "function"
    },
    {
      "inputs": [
        {
          "internalType": "bytes4",
          "name": "interfaceId",
          "type": "bytes4"
        }
      ],
      "name": "supportsInterface",
      "outputs": [
        {
          "internalType": "bool",
          "name": "",
          "type": "bool"
        }
      ],
      "stateMutability": "view",
      "type": "function"
    },
    {
      "inputs": [],
      "name": "symbol",
      "outputs": [
        {
          "internalType": "string",
          "name": "",
          "type": "string"
        }
      ],
      "stateMutability": "view",
      "type": "function"
    },
    {
      "inputs": [],
      "name": "tokenCounter",
      "outputs": [
        {
          "internalType": "uint256",
          "name": "",
          "type": "uint256"
        }
      ],
      "stateMutability": "view",
      "type": "function"
    },
    {
      "inputs": [
        {
          "internalType": "uint256",
          "name": "_tokenId",
          "type": "uint256"
        }
      ],
      "name": "tokenURI",
      "outputs": [
        {
          "internalType": "string",
          "name": "",
          "type": "string"
        }
      ],
      "stateMutability": "view",
      "type": "function"
    },
    {
      "inputs": [
        {
          "internalType": "address",
          "name": "_toAddress",
          "type": "address"
        },
        {
          "internalType": "uint256",
          "name": "_amount",
          "type": "uint256"
        }
      ],
      "name": "transferDonations",
      "outputs": [],
      "stateMutability": "nonpayable",
      "type": "function"
    },
    {
      "inputs": [
        {
          "internalType": "address",
          "name": "from",
          "type": "address"
        },
        {
          "internalType": "address",
          "name": "to",
          "type": "address"
        },
        {
          "internalType": "uint256",
          "name": "tokenId",
          "type": "uint256"
        }
      ],
      "name": "transferFrom",
      "outputs": [],
      "stateMutability": "nonpayable",
      "type": "function"
    }
  ],
  "bytecode": "0x6080604052604051620032d0380380620032d083398181016040528101906200002991906200023f565b818181600090816200003c91906200050f565b5080600190816200004e91906200050f565b505050600060068190555033600760006101000a81548173ffffffffffffffffffffffffffffffffffffffff021916908373ffffffffffffffffffffffffffffffffffffffff1602179055505050620005f6565b6000604051905090565b600080fd5b600080fd5b600080fd5b600080fd5b6000601f19601f8301169050919050565b7f4e487b7100000000000000000000000000000000000000000000000000000000600052604160045260246000fd5b6200010b82620000c0565b810181811067ffffffffffffffff821117156200012d576200012c620000d1565b5b80604052505050565b600062000142620000a2565b905062000150828262000100565b919050565b600067ffffffffffffffff821115620001735762000172620000d1565b5b6200017e82620000c0565b9050602081019050919050565b60005b83811015620001ab5780820151818401526020810190506200018e565b83811115620001bb576000848401525b50505050565b6000620001d8620001d28462000155565b62000136565b905082815260208101848484011115620001f757620001f6620000bb565b5b620002048482856200018b565b509392505050565b600082601f830112620002245762000223620000b6565b5b815162000236848260208601620001c1565b91505092915050565b60008060408385031215620002595762000258620000ac565b5b600083015167ffffffffffffffff8111156200027a5762000279620000b1565b5b62000288858286016200020c565b925050602083015167ffffffffffffffff811115620002ac57620002ab620000b1565b5b620002ba858286016200020c565b9150509250929050565b600081519050919050565b7f4e487b7100000000000000000000000000000000000000000000000000000000600052602260045260246000fd5b600060028204905060018216806200031757607f821691505b6020821081036200032d576200032c620002cf565b5b50919050565b60008190508160005260206000209050919050565b60006020601f8301049050919050565b600082821b905092915050565b600060088302620003977fffffffffffffffffffffffffffffffffffffffffffffffffffffffffffffffff8262000358565b620003a3868362000358565b95508019841693508086168417925050509392505050565b6000819050919050565b6000819050919050565b6000620003f0620003ea620003e484620003bb565b620003c5565b620003bb565b9050919050565b6000819050919050565b6200040c83620003cf565b620004246200041b82620003f7565b84845462000365565b825550505050565b600090565b6200043b6200042c565b6200044881848462000401565b505050565b5b8181101562000470576200046460008262000431565b6001810190506200044e565b5050565b601f821115620004bf57620004898162000333565b620004948462000348565b81016020851015620004a4578190505b620004bc620004b38562000348565b8301826200044d565b50505b505050565b600082821c905092915050565b6000620004e460001984600802620004c4565b1980831691505092915050565b6000620004ff8383620004d1565b9150826002028217905092915050565b6200051a82620002c4565b67ffffffffffffffff811115620005365762000535620000d1565b5b620005428254620002fe565b6200054f82828562000474565b600060209050601f83116001811462000587576000841562000572578287015190505b6200057e8582620004f1565b865550620005ee565b601f198416620005978662000333565b60005b82811015620005c1578489015182556001820191506020850194506020810190506200059a565b86831015620005e15784890151620005dd601f891682620004d1565b8355505b6001600288020188555050505b505050505050565b612cca80620006066000396000f3fe6080604052600436106101095760003560e01c80637dfc388711610095578063b88d4fde11610064578063b88d4fde14610379578063c87b56dd146103a2578063d082e381146103df578063d85d3d271461040a578063e985e9c51461042657610109565b80637dfc3887146102d357806395d89b41146102fc578063a22cb46514610327578063a6f9dae11461035057610109565b8063234265b7116100dc578063234265b7146101dc57806323b872dd1461020757806342842e0e146102305780636352211e1461025957806370a082311461029657610109565b806301ffc9a71461010e57806306fdde031461014b578063081812fc14610176578063095ea7b3146101b3575b600080fd5b34801561011a57600080fd5b50610135600480360381019061013091906119c7565b610463565b6040516101429190611a0f565b60405180910390f35b34801561015757600080fd5b50610160610545565b60405161016d9190611ac3565b60405180910390f35b34801561018257600080fd5b5061019d60048036038101906101989190611b1b565b6105d7565b6040516101aa9190611b89565b60405180910390f35b3480156101bf57600080fd5b506101da60048036038101906101d59190611bd0565b61061d565b005b3480156101e857600080fd5b506101f1610734565b6040516101fe9190611c1f565b60405180910390f35b34801561021357600080fd5b5061022e60048036038101906102299190611c3a565b61073c565b005b34801561023c57600080fd5b5061025760048036038101906102529190611c3a565b61079c565b005b34801561026557600080fd5b50610280600480360381019061027b9190611b1b565b6107bc565b60405161028d9190611b89565b60405180910390f35b3480156102a257600080fd5b506102bd60048036038101906102b89190611c8d565b61086d565b6040516102ca9190611c1f565b60405180910390f35b3480156102df57600080fd5b506102fa60048036038101906102f59190611bd0565b610924565b005b34801561030857600080fd5b50610311610aab565b60405161031e9190611ac3565b60405180910390f35b34801561033357600080fd5b5061034e60048036038101906103499190611ce6565b610b3d565b005b34801561035c57600080fd5b5061037760048036038101906103729190611c8d565b610b53565b005b34801561038557600080fd5b506103a0600480360381019061039b9190611e5b565b610c27565b005b3480156103ae57600080fd5b506103c960048036038101906103c49190611b1b565b610c89565b6040516103d69190611ac3565b60405180910390f35b3480156103eb57600080fd5b506103f4610d76565b6040516104019190611c1f565b60405180910390f35b610424600480360381019061041f9190611f7f565b610d7c565b005b34801561043257600080fd5b5061044d60048036038101906104489190611fc8565b610daf565b60405161045a9190611a0f565b60405180910390f35b60007f80ac58cd000000000000000000000000000000000000000000000000000000007bffffffffffffffffffffffffffffffffffffffffffffffffffffffff1916827bffffffffffffffffffffffffffffffffffffffffffffffffffffffff1916148061052e57507f5b5e139f000000000000000000000000000000000000000000000000000000007bffffffffffffffffffffffffffffffffffffffffffffffffffffffff1916827bffffffffffffffffffffffffffffffffffffffffffffffffffffffff1916145b8061053e575061053d82610e43565b5b9050919050565b60606000805461055490612037565b80601f016020809104026020016040519081016040528092919081815260200182805461058090612037565b80156105cd5780601f106105a2576101008083540402835291602001916105cd565b820191906000526020600020905b8154815290600101906020018083116105b057829003601f168201915b5050505050905090565b60006105e282610ead565b6004600083815260200190815260200160002060009054906101000a900473ffffffffffffffffffffffffffffffffffffffff169050919050565b6000610628826107bc565b90508073ffffffffffffffffffffffffffffffffffffffff168373ffffffffffffffffffffffffffffffffffffffff1603610698576040517f08c379a000000000000000000000000000000000000000000000000000000000815260040161068f906120da565b60405180910390fd5b8073ffffffffffffffffffffffffffffffffffffffff166106b7610ef8565b73ffffffffffffffffffffffffffffffffffffffff1614806106e657506106e5816106e0610ef8565b610daf565b5b610725576040517f08c379a000000000000000000000000000000000000000000000000000000000815260040161071c9061216c565b60405180910390fd5b61072f8383610f00565b505050565b600047905090565b61074d610747610ef8565b82610fb9565b61078c576040517f08c379a0000000000000000000000000000000000000000000000000000000008152600401610783906121fe565b60405180910390fd5b61079783838361104e565b505050565b6107b783838360405180602001604052806000815250610c27565b505050565b6000806002600084815260200190815260200160002060009054906101000a900473ffffffffffffffffffffffffffffffffffffffff169050600073ffffffffffffffffffffffffffffffffffffffff168173ffffffffffffffffffffffffffffffffffffffff1603610864576040517f08c379a000000000000000000000000000000000000000000000000000000000815260040161085b9061226a565b60405180910390fd5b80915050919050565b60008073ffffffffffffffffffffffffffffffffffffffff168273ffffffffffffffffffffffffffffffffffffffff16036108dd576040517f08c379a00000000000000000000000000000000000000000000000000000000081526004016108d4906122fc565b60405180910390fd5b600360008373ffffffffffffffffffffffffffffffffffffffff1673ffffffffffffffffffffffffffffffffffffffff168152602001908152602001600020549050919050565b3373ffffffffffffffffffffffffffffffffffffffff16600760009054906101000a900473ffffffffffffffffffffffffffffffffffffffff1673ffffffffffffffffffffffffffffffffffffffff16146109b4576040517f08c379a00000000000000000000000000000000000000000000000000000000081526004016109ab9061238e565b60405180910390fd5b478111156109f7576040517f08c379a00000000000000000000000000000000000000000000000000000000081526004016109ee906123fa565b60405180910390fd5b6000808373ffffffffffffffffffffffffffffffffffffffff1683604051610a1e9061244b565b60006040518083038185875af1925050503d8060008114610a5b576040519150601f19603f3d011682016040523d82523d6000602084013e610a60565b606091505b509150915081610aa5576040517f08c379a0000000000000000000000000000000000000000000000000000000008152600401610a9c906124ac565b60405180910390fd5b50505050565b606060018054610aba90612037565b80601f0160208091040260200160405190810160405280929190818152602001828054610ae690612037565b8015610b335780601f10610b0857610100808354040283529160200191610b33565b820191906000526020600020905b815481529060010190602001808311610b1657829003601f168201915b5050505050905090565b610b4f610b48610ef8565b83836112b4565b5050565b3373ffffffffffffffffffffffffffffffffffffffff16600760009054906101000a900473ffffffffffffffffffffffffffffffffffffffff1673ffffffffffffffffffffffffffffffffffffffff1614610be3576040517f08c379a0000000000000000000000000000000000000000000000000000000008152600401610bda9061238e565b60405180910390fd5b80600760006101000a81548173ffffffffffffffffffffffffffffffffffffffff021916908373ffffffffffffffffffffffffffffffffffffffff16021790555050565b610c38610c32610ef8565b83610fb9565b610c77576040517f08c379a0000000000000000000000000000000000000000000000000000000008152600401610c6e906121fe565b60405180910390fd5b610c8384848484611420565b50505050565b6060610c948261147c565b610cd3576040517f08c379a0000000000000000000000000000000000000000000000000000000008152600401610cca90612518565b60405180910390fd5b600860008381526020019081526020016000208054610cf190612037565b80601f0160208091040260200160405190810160405280929190818152602001828054610d1d90612037565b8015610d6a5780601f10610d3f57610100808354040283529160200191610d6a565b820191906000526020600020905b815481529060010190602001808311610d4d57829003601f168201915b50505050509050919050565b60065481565b610d88336006546114e8565b610d9460065482611506565b60066000815480929190610da790612567565b919050555050565b6000600560008473ffffffffffffffffffffffffffffffffffffffff1673ffffffffffffffffffffffffffffffffffffffff16815260200190815260200160002060008373ffffffffffffffffffffffffffffffffffffffff1673ffffffffffffffffffffffffffffffffffffffff16815260200190815260200160002060009054906101000a900460ff16905092915050565b60007f01ffc9a7000000000000000000000000000000000000000000000000000000007bffffffffffffffffffffffffffffffffffffffffffffffffffffffff1916827bffffffffffffffffffffffffffffffffffffffffffffffffffffffff1916149050919050565b610eb68161147c565b610ef5576040517f08c379a0000000000000000000000000000000000000000000000000000000008152600401610eec9061226a565b60405180910390fd5b50565b600033905090565b816004600083815260200190815260200160002060006101000a81548173ffffffffffffffffffffffffffffffffffffffff021916908373ffffffffffffffffffffffffffffffffffffffff160217905550808273ffffffffffffffffffffffffffffffffffffffff16610f73836107bc565b73ffffffffffffffffffffffffffffffffffffffff167f8c5be1e5ebec7d5bd14f71427d1e84f3dd0314c0f7b2291e5b200ac8c7c3b92560405160405180910390a45050565b600080610fc5836107bc565b90508073ffffffffffffffffffffffffffffffffffffffff168473ffffffffffffffffffffffffffffffffffffffff16148061100757506110068185610daf565b5b8061104557508373ffffffffffffffffffffffffffffffffffffffff1661102d846105d7565b73ffffffffffffffffffffffffffffffffffffffff16145b91505092915050565b8273ffffffffffffffffffffffffffffffffffffffff1661106e826107bc565b73ffffffffffffffffffffffffffffffffffffffff16146110c4576040517f08c379a00000000000000000000000000000000000000000000000000000000081526004016110bb90612621565b60405180910390fd5b600073ffffffffffffffffffffffffffffffffffffffff168273ffffffffffffffffffffffffffffffffffffffff1603611133576040517f08c379a000000000000000000000000000000000000000000000000000000000815260040161112a906126b3565b60405180910390fd5b61113e838383611573565b611149600082610f00565b6001600360008573ffffffffffffffffffffffffffffffffffffffff1673ffffffffffffffffffffffffffffffffffffffff168152602001908152602001600020600082825461119991906126d3565b925050819055506001600360008473ffffffffffffffffffffffffffffffffffffffff1673ffffffffffffffffffffffffffffffffffffffff16815260200190815260200160002060008282546111f09190612707565b92505081905550816002600083815260200190815260200160002060006101000a81548173ffffffffffffffffffffffffffffffffffffffff021916908373ffffffffffffffffffffffffffffffffffffffff160217905550808273ffffffffffffffffffffffffffffffffffffffff168473ffffffffffffffffffffffffffffffffffffffff167fddf252ad1be2c89b69c2b068fc378daa952ba7f163c4a11628f55a4df523b3ef60405160405180910390a46112af838383611578565b505050565b8173ffffffffffffffffffffffffffffffffffffffff168373ffffffffffffffffffffffffffffffffffffffff1603611322576040517f08c379a0000000000000000000000000000000000000000000000000000000008152600401611319906127a9565b60405180910390fd5b80600560008573ffffffffffffffffffffffffffffffffffffffff1673ffffffffffffffffffffffffffffffffffffffff16815260200190815260200160002060008473ffffffffffffffffffffffffffffffffffffffff1673ffffffffffffffffffffffffffffffffffffffff16815260200190815260200160002060006101000a81548160ff0219169083151502179055508173ffffffffffffffffffffffffffffffffffffffff168373ffffffffffffffffffffffffffffffffffffffff167f17307eab39ab6107e8899845ad3d59bd9653f200f220920489ca2b5937696c31836040516114139190611a0f565b60405180910390a3505050565b61142b84848461104e565b6114378484848461157d565b611476576040517f08c379a000000000000000000000000000000000000000000000000000000000815260040161146d9061283b565b60405180910390fd5b50505050565b60008073ffffffffffffffffffffffffffffffffffffffff166002600084815260200190815260200160002060009054906101000a900473ffffffffffffffffffffffffffffffffffffffff1673ffffffffffffffffffffffffffffffffffffffff1614159050919050565b611502828260405180602001604052806000815250611704565b5050565b61150f8261147c565b61154e576040517f08c379a000000000000000000000000000000000000000000000000000000000815260040161154590612518565b60405180910390fd5b8060086000848152602001908152602001600020908161156e9190612a07565b505050565b505050565b505050565b600061159e8473ffffffffffffffffffffffffffffffffffffffff1661175f565b156116f7578373ffffffffffffffffffffffffffffffffffffffff1663150b7a026115c7610ef8565b8786866040518563ffffffff1660e01b81526004016115e99493929190612b2e565b6020604051808303816000875af192505050801561162557506040513d601f19601f820116820180604052508101906116229190612b8f565b60015b6116a7573d8060008114611655576040519150601f19603f3d011682016040523d82523d6000602084013e61165a565b606091505b50600081510361169f576040517f08c379a00000000000000000000000000000000000000000000000000000000081526004016116969061283b565b60405180910390fd5b805181602001fd5b63150b7a0260e01b7bffffffffffffffffffffffffffffffffffffffffffffffffffffffff1916817bffffffffffffffffffffffffffffffffffffffffffffffffffffffff1916149150506116fc565b600190505b949350505050565b61170e8383611782565b61171b600084848461157d565b61175a576040517f08c379a00000000000000000000000000000000000000000000000000000000081526004016117519061283b565b60405180910390fd5b505050565b6000808273ffffffffffffffffffffffffffffffffffffffff163b119050919050565b600073ffffffffffffffffffffffffffffffffffffffff168273ffffffffffffffffffffffffffffffffffffffff16036117f1576040517f08c379a00000000000000000000000000000000000000000000000000000000081526004016117e890612c08565b60405180910390fd5b6117fa8161147c565b1561183a576040517f08c379a000000000000000000000000000000000000000000000000000000000815260040161183190612c74565b60405180910390fd5b61184660008383611573565b6001600360008473ffffffffffffffffffffffffffffffffffffffff1673ffffffffffffffffffffffffffffffffffffffff16815260200190815260200160002060008282546118969190612707565b92505081905550816002600083815260200190815260200160002060006101000a81548173ffffffffffffffffffffffffffffffffffffffff021916908373ffffffffffffffffffffffffffffffffffffffff160217905550808273ffffffffffffffffffffffffffffffffffffffff16600073ffffffffffffffffffffffffffffffffffffffff167fddf252ad1be2c89b69c2b068fc378daa952ba7f163c4a11628f55a4df523b3ef60405160405180910390a461195760008383611578565b5050565b6000604051905090565b600080fd5b600080fd5b60007fffffffff0000000000000000000000000000000000000000000000000000000082169050919050565b6119a48161196f565b81146119af57600080fd5b50565b6000813590506119c18161199b565b92915050565b6000602082840312156119dd576119dc611965565b5b60006119eb848285016119b2565b91505092915050565b60008115159050919050565b611a09816119f4565b82525050565b6000602082019050611a246000830184611a00565b92915050565b600081519050919050565b600082825260208201905092915050565b60005b83811015611a64578082015181840152602081019050611a49565b83811115611a73576000848401525b50505050565b6000601f19601f8301169050919050565b6000611a9582611a2a565b611a9f8185611a35565b9350611aaf818560208601611a46565b611ab881611a79565b840191505092915050565b60006020820190508181036000830152611add8184611a8a565b905092915050565b6000819050919050565b611af881611ae5565b8114611b0357600080fd5b50565b600081359050611b1581611aef565b92915050565b600060208284031215611b3157611b30611965565b5b6000611b3f84828501611b06565b91505092915050565b600073ffffffffffffffffffffffffffffffffffffffff82169050919050565b6000611b7382611b48565b9050919050565b611b8381611b68565b82525050565b6000602082019050611b9e6000830184611b7a565b92915050565b611bad81611b68565b8114611bb857600080fd5b50565b600081359050611bca81611ba4565b92915050565b60008060408385031215611be757611be6611965565b5b6000611bf585828601611bbb565b9250506020611c0685828601611b06565b9150509250929050565b611c1981611ae5565b82525050565b6000602082019050611c346000830184611c10565b92915050565b600080600060608486031215611c5357611c52611965565b5b6000611c6186828701611bbb565b9350506020611c7286828701611bbb565b9250506040611c8386828701611b06565b9150509250925092565b600060208284031215611ca357611ca2611965565b5b6000611cb184828501611bbb565b91505092915050565b611cc3816119f4565b8114611cce57600080fd5b50565b600081359050611ce081611cba565b92915050565b60008060408385031215611cfd57611cfc611965565b5b6000611d0b85828601611bbb565b9250506020611d1c85828601611cd1565b9150509250929050565b600080fd5b600080fd5b7f4e487b7100000000000000000000000000000000000000000000000000000000600052604160045260246000fd5b611d6882611a79565b810181811067ffffffffffffffff82111715611d8757611d86611d30565b5b80604052505050565b6000611d9a61195b565b9050611da68282611d5f565b919050565b600067ffffffffffffffff821115611dc657611dc5611d30565b5b611dcf82611a79565b9050602081019050919050565b82818337600083830152505050565b6000611dfe611df984611dab565b611d90565b905082815260208101848484011115611e1a57611e19611d2b565b5b611e25848285611ddc565b509392505050565b600082601f830112611e4257611e41611d26565b5b8135611e52848260208601611deb565b91505092915050565b60008060008060808587031215611e7557611e74611965565b5b6000611e8387828801611bbb565b9450506020611e9487828801611bbb565b9350506040611ea587828801611b06565b925050606085013567ffffffffffffffff811115611ec657611ec561196a565b5b611ed287828801611e2d565b91505092959194509250565b600067ffffffffffffffff821115611ef957611ef8611d30565b5b611f0282611a79565b9050602081019050919050565b6000611f22611f1d84611ede565b611d90565b905082815260208101848484011115611f3e57611f3d611d2b565b5b611f49848285611ddc565b509392505050565b600082601f830112611f6657611f65611d26565b5b8135611f76848260208601611f0f565b91505092915050565b600060208284031215611f9557611f94611965565b5b600082013567ffffffffffffffff811115611fb357611fb261196a565b5b611fbf84828501611f51565b91505092915050565b60008060408385031215611fdf57611fde611965565b5b6000611fed85828601611bbb565b9250506020611ffe85828601611bbb565b9150509250929050565b7f4e487b7100000000000000000000000000000000000000000000000000000000600052602260045260246000fd5b6000600282049050600182168061204f57607f821691505b60208210810361206257612061612008565b5b50919050565b7f4552433732313a20617070726f76616c20746f2063757272656e74206f776e6560008201527f7200000000000000000000000000000000000000000000000000000000000000602082015250565b60006120c4602183611a35565b91506120cf82612068565b604082019050919050565b600060208201905081810360008301526120f3816120b7565b9050919050565b7f4552433732313a20617070726f76652063616c6c6572206973206e6f7420746f60008201527f6b656e206f776e6572206e6f7220617070726f76656420666f7220616c6c0000602082015250565b6000612156603e83611a35565b9150612161826120fa565b604082019050919050565b6000602082019050818103600083015261218581612149565b9050919050565b7f4552433732313a2063616c6c6572206973206e6f7420746f6b656e206f776e6560008201527f72206e6f7220617070726f766564000000000000000000000000000000000000602082015250565b60006121e8602e83611a35565b91506121f38261218c565b604082019050919050565b60006020820190508181036000830152612217816121db565b9050919050565b7f4552433732313a20696e76616c696420746f6b656e2049440000000000000000600082015250565b6000612254601883611a35565b915061225f8261221e565b602082019050919050565b6000602082019050818103600083015261228381612247565b9050919050565b7f4552433732313a2061646472657373207a65726f206973206e6f74206120766160008201527f6c6964206f776e65720000000000000000000000000000000000000000000000602082015250565b60006122e6602983611a35565b91506122f18261228a565b604082019050919050565b60006020820190508181036000830152612315816122d9565b9050919050565b7f4f6e6c7920636f6e7472616374206f776e65722063616e2063616c6c2074686960008201527f7300000000000000000000000000000000000000000000000000000000000000602082015250565b6000612378602183611a35565b91506123838261231c565b604082019050919050565b600060208201905081810360008301526123a78161236b565b9050919050565b7f4e6f7420656e6f756768204d4154494320696e20636f6e747261637400000000600082015250565b60006123e4601c83611a35565b91506123ef826123ae565b602082019050919050565b60006020820190508181036000830152612413816123d7565b9050919050565b600081905092915050565b50565b600061243560008361241a565b915061244082612425565b600082019050919050565b600061245682612428565b9150819050919050565b7f4661696c656420746f2073656e64204574686572000000000000000000000000600082015250565b6000612496601483611a35565b91506124a182612460565b602082019050919050565b600060208201905081810360008301526124c581612489565b9050919050565b7f546f6b656e20494420646f6573206e6f74206578697374000000000000000000600082015250565b6000612502601783611a35565b915061250d826124cc565b602082019050919050565b60006020820190508181036000830152612531816124f5565b9050919050565b7f4e487b7100000000000000000000000000000000000000000000000000000000600052601160045260246000fd5b600061257282611ae5565b91507fffffffffffffffffffffffffffffffffffffffffffffffffffffffffffffffff82036125a4576125a3612538565b5b600182019050919050565b7f4552433732313a207472616e736665722066726f6d20696e636f72726563742060008201527f6f776e6572000000000000000000000000000000000000000000000000000000602082015250565b600061260b602583611a35565b9150612616826125af565b604082019050919050565b6000602082019050818103600083015261263a816125fe565b9050919050565b7f4552433732313a207472616e7366657220746f20746865207a65726f2061646460008201527f7265737300000000000000000000000000000000000000000000000000000000602082015250565b600061269d602483611a35565b91506126a882612641565b604082019050919050565b600060208201905081810360008301526126cc81612690565b9050919050565b60006126de82611ae5565b91506126e983611ae5565b9250828210156126fc576126fb612538565b5b828203905092915050565b600061271282611ae5565b915061271d83611ae5565b9250827fffffffffffffffffffffffffffffffffffffffffffffffffffffffffffffffff0382111561275257612751612538565b5b828201905092915050565b7f4552433732313a20617070726f766520746f2063616c6c657200000000000000600082015250565b6000612793601983611a35565b915061279e8261275d565b602082019050919050565b600060208201905081810360008301526127c281612786565b9050919050565b7f4552433732313a207472616e7366657220746f206e6f6e20455243373231526560008201527f63656976657220696d706c656d656e7465720000000000000000000000000000602082015250565b6000612825603283611a35565b9150612830826127c9565b604082019050919050565b6000602082019050818103600083015261285481612818565b9050919050565b60008190508160005260206000209050919050565b60006020601f8301049050919050565b600082821b905092915050565b6000600883026128bd7fffffffffffffffffffffffffffffffffffffffffffffffffffffffffffffffff82612880565b6128c78683612880565b95508019841693508086168417925050509392505050565b6000819050919050565b60006129046128ff6128fa84611ae5565b6128df565b611ae5565b9050919050565b6000819050919050565b61291e836128e9565b61293261292a8261290b565b84845461288d565b825550505050565b600090565b61294761293a565b612952818484612915565b505050565b5b818110156129765761296b60008261293f565b600181019050612958565b5050565b601f8211156129bb5761298c8161285b565b61299584612870565b810160208510156129a4578190505b6129b86129b085612870565b830182612957565b50505b505050565b600082821c905092915050565b60006129de600019846008026129c0565b1980831691505092915050565b60006129f783836129cd565b9150826002028217905092915050565b612a1082611a2a565b67ffffffffffffffff811115612a2957612a28611d30565b5b612a338254612037565b612a3e82828561297a565b600060209050601f831160018114612a715760008415612a5f578287015190505b612a6985826129eb565b865550612ad1565b601f198416612a7f8661285b565b60005b82811015612aa757848901518255600182019150602085019450602081019050612a82565b86831015612ac45784890151612ac0601f8916826129cd565b8355505b6001600288020188555050505b505050505050565b600081519050919050565b600082825260208201905092915050565b6000612b0082612ad9565b612b0a8185612ae4565b9350612b1a818560208601611a46565b612b2381611a79565b840191505092915050565b6000608082019050612b436000830187611b7a565b612b506020830186611b7a565b612b5d6040830185611c10565b8181036060830152612b6f8184612af5565b905095945050505050565b600081519050612b898161199b565b92915050565b600060208284031215612ba557612ba4611965565b5b6000612bb384828501612b7a565b91505092915050565b7f4552433732313a206d696e7420746f20746865207a65726f2061646472657373600082015250565b6000612bf2602083611a35565b9150612bfd82612bbc565b602082019050919050565b60006020820190508181036000830152612c2181612be5565b9050919050565b7f4552433732313a20746f6b656e20616c7265616479206d696e74656400000000600082015250565b6000612c5e601c83611a35565b9150612c6982612c28565b602082019050919050565b60006020820190508181036000830152612c8d81612c51565b905091905056fea264697066735822122082f8a20b73b3e52921012d8fb7b365b220ea7a5811b001312d892e2afaf2b08864736f6c634300080f0033",
  "linkReferences": {},
  "deployedLinkReferences": {}
}